{
  "contractName": "SimulatedUSDTToken",
  "abi": [
    {
      "inputs": [
        {
          "internalType": "address",
          "name": "_usdtAddress",
          "type": "address"
        },
        {
          "internalType": "address",
          "name": "_uniswapRouterAddress",
          "type": "address"
        }
      ],
      "stateMutability": "nonpayable",
      "type": "constructor"
    },
    {
      "anonymous": false,
      "inputs": [
        {
          "indexed": true,
          "internalType": "address",
          "name": "owner",
          "type": "address"
        },
        {
          "indexed": true,
          "internalType": "address",
          "name": "spender",
          "type": "address"
        },
        {
          "indexed": false,
          "internalType": "uint256",
          "name": "value",
          "type": "uint256"
        }
      ],
      "name": "Approval",
      "type": "event"
    },
    {
      "anonymous": false,
      "inputs": [
        {
          "indexed": true,
          "internalType": "address",
          "name": "from",
          "type": "address"
        },
        {
          "indexed": true,
          "internalType": "address",
          "name": "to",
          "type": "address"
        },
        {
          "indexed": false,
          "internalType": "uint256",
          "name": "value",
          "type": "uint256"
        }
      ],
      "name": "Transfer",
      "type": "event"
    },
    {
      "inputs": [],
      "name": "decimals",
      "outputs": [
        {
          "internalType": "uint8",
          "name": "",
          "type": "uint8"
        }
      ],
      "stateMutability": "view",
      "type": "function",
      "constant": true
    },
    {
      "inputs": [],
      "name": "name",
      "outputs": [
        {
          "internalType": "string",
          "name": "",
          "type": "string"
        }
      ],
      "stateMutability": "view",
      "type": "function",
      "constant": true
    },
    {
      "inputs": [],
      "name": "symbol",
      "outputs": [
        {
          "internalType": "string",
          "name": "",
          "type": "string"
        }
      ],
      "stateMutability": "view",
      "type": "function",
      "constant": true
    },
    {
      "inputs": [],
      "name": "uniswapRouter",
      "outputs": [
        {
          "internalType": "contract IUniswapV2Router02",
          "name": "",
          "type": "address"
        }
      ],
      "stateMutability": "view",
      "type": "function",
      "constant": true
    },
    {
      "inputs": [],
      "name": "usdt",
      "outputs": [
        {
          "internalType": "address",
          "name": "",
          "type": "address"
        }
      ],
      "stateMutability": "view",
      "type": "function",
      "constant": true
    },
    {
      "inputs": [],
      "name": "totalSupply",
      "outputs": [
        {
          "internalType": "uint256",
          "name": "",
          "type": "uint256"
        }
      ],
      "stateMutability": "view",
      "type": "function",
      "constant": true
    },
    {
      "inputs": [
        {
          "internalType": "address",
          "name": "account",
          "type": "address"
        }
      ],
      "name": "balanceOf",
      "outputs": [
        {
          "internalType": "uint256",
          "name": "",
          "type": "uint256"
        }
      ],
      "stateMutability": "view",
      "type": "function",
      "constant": true
    },
    {
      "inputs": [
        {
          "internalType": "address",
          "name": "recipient",
          "type": "address"
        },
        {
          "internalType": "uint256",
          "name": "amount",
          "type": "uint256"
        }
      ],
      "name": "transfer",
      "outputs": [
        {
          "internalType": "bool",
          "name": "",
          "type": "bool"
        }
      ],
      "stateMutability": "nonpayable",
      "type": "function"
    },
    {
      "inputs": [
        {
          "internalType": "address",
          "name": "owner",
          "type": "address"
        },
        {
          "internalType": "address",
          "name": "spender",
          "type": "address"
        }
      ],
      "name": "allowance",
      "outputs": [
        {
          "internalType": "uint256",
          "name": "",
          "type": "uint256"
        }
      ],
      "stateMutability": "view",
      "type": "function",
      "constant": true
    },
    {
      "inputs": [
        {
          "internalType": "address",
          "name": "spender",
          "type": "address"
        },
        {
          "internalType": "uint256",
          "name": "amount",
          "type": "uint256"
        }
      ],
      "name": "approve",
      "outputs": [
        {
          "internalType": "bool",
          "name": "",
          "type": "bool"
        }
      ],
      "stateMutability": "nonpayable",
      "type": "function"
    },
    {
      "inputs": [
        {
          "internalType": "address",
          "name": "sender",
          "type": "address"
        },
        {
          "internalType": "address",
          "name": "recipient",
          "type": "address"
        },
        {
          "internalType": "uint256",
          "name": "amount",
          "type": "uint256"
        }
      ],
      "name": "transferFrom",
      "outputs": [
        {
          "internalType": "bool",
          "name": "",
          "type": "bool"
        }
      ],
      "stateMutability": "nonpayable",
      "type": "function"
    },
    {
      "inputs": [
        {
          "internalType": "uint256",
          "name": "tokenAmount",
          "type": "uint256"
        },
        {
          "internalType": "uint256",
          "name": "usdtAmount",
          "type": "uint256"
        }
      ],
      "name": "addLiquidity",
      "outputs": [],
      "stateMutability": "nonpayable",
      "type": "function"
    },
    {
      "inputs": [
        {
          "internalType": "uint256",
          "name": "amount",
          "type": "uint256"
        }
      ],
      "name": "exchangeSimulatedForUSDT",
      "outputs": [],
      "stateMutability": "nonpayable",
      "type": "function"
    },
    {
      "inputs": [],
      "name": "getSimulatedPrice",
      "outputs": [
        {
          "internalType": "uint256",
          "name": "",
          "type": "uint256"
        }
      ],
      "stateMutability": "view",
      "type": "function",
      "constant": true
    }
  ],
  "bytecode": "0x60c0604052600a60809081526915195d1a195c881554d160b21b60a0525f906200002a90826200027e565b506040805180820190915260048152631554d11560e21b60208201526001906200005590826200027e565b506002805460ff191660061790553480156200006f575f80fd5b50604051620012cb380380620012cb833981016040819052620000929162000362565b600780546001600160a01b038085166001600160a01b0319928316179092556006805492841692909116919091179055600254620000f1903390620000dc9060ff16600a620004a7565b620000eb9062989680620004bb565b620000f9565b5050620004eb565b6001600160a01b038216620001545760405162461bcd60e51b815260206004820152601f60248201527f45524332303a206d696e7420746f20746865207a65726f206164647265737300604482015260640160405180910390fd5b8060035f828254620001679190620004d5565b90915550506001600160a01b0382165f908152600460205260408120805483929062000195908490620004d5565b90915550506040518181526001600160a01b038316905f907fddf252ad1be2c89b69c2b068fc378daa952ba7f163c4a11628f55a4df523b3ef9060200160405180910390a35050565b634e487b7160e01b5f52604160045260245ffd5b600181811c908216806200020757607f821691505b6020821081036200022657634e487b7160e01b5f52602260045260245ffd5b50919050565b601f82111562000279575f81815260208120601f850160051c81016020861015620002545750805b601f850160051c820191505b81811015620002755782815560010162000260565b5050505b505050565b81516001600160401b038111156200029a576200029a620001de565b620002b281620002ab8454620001f2565b846200022c565b602080601f831160018114620002e8575f8415620002d05750858301515b5f19600386901b1c1916600185901b17855562000275565b5f85815260208120601f198616915b828110156200031857888601518255948401946001909101908401620002f7565b50858210156200033657878501515f19600388901b60f8161c191681555b5050505050600190811b01905550565b80516001600160a01b03811681146200035d575f80fd5b919050565b5f806040838503121562000374575f80fd5b6200037f8362000346565b91506200038f6020840162000346565b90509250929050565b634e487b7160e01b5f52601160045260245ffd5b600181815b80851115620003ec57815f1904821115620003d057620003d062000398565b80851615620003de57918102915b93841c9390800290620003b1565b509250929050565b5f826200040457506001620004a1565b816200041257505f620004a1565b81600181146200042b5760028114620004365762000456565b6001915050620004a1565b60ff8411156200044a576200044a62000398565b50506001821b620004a1565b5060208310610133831016604e8410600b84101617156200047b575081810a620004a1565b620004878383620003ac565b805f19048211156200049d576200049d62000398565b0290505b92915050565b5f620004b48383620003f4565b9392505050565b8082028115828204841417620004a157620004a162000398565b80820180821115620004a157620004a162000398565b610dd280620004f95f395ff3fe608060405234801561000f575f80fd5b50600436106100e5575f3560e01c806370a082311161008857806395d89b411161006357806395d89b41146101f15780639cd441da146101f9578063a9059cbb1461020c578063dd62ed3e1461021f575f80fd5b806370a08231146101ae578063735de9f7146101d65780638be6b6b4146101e9575f80fd5b806323b872dd116100c357806323b872dd1461013c5780632f48ab7d1461014f578063313ce5671461017a578063418c157c14610199575f80fd5b806306fdde03146100e9578063095ea7b31461010757806318160ddd1461012a575b5f80fd5b6100f1610257565b6040516100fe9190610a8f565b60405180910390f35b61011a610115366004610af5565b6102e2565b60405190151581526020016100fe565b6003545b6040519081526020016100fe565b61011a61014a366004610b1d565b6102f8565b600754610162906001600160a01b031681565b6040516001600160a01b0390911681526020016100fe565b6002546101879060ff1681565b60405160ff90911681526020016100fe565b6101ac6101a7366004610b56565b610348565b005b61012e6101bc366004610b6d565b6001600160a01b03165f9081526004602052604090205490565b600654610162906001600160a01b031681565b61012e61045d565b6100f1610480565b6101ac610207366004610b8d565b61048d565b61011a61021a366004610af5565b61062c565b61012e61022d366004610bad565b6001600160a01b039182165f90815260056020908152604080832093909416825291909152205490565b5f805461026390610bde565b80601f016020809104026020016040519081016040528092919081815260200182805461028f90610bde565b80156102da5780601f106102b1576101008083540402835291602001916102da565b820191905f5260205f20905b8154815290600101906020018083116102bd57829003601f168201915b505050505081565b5f6102ee338484610638565b5060015b92915050565b5f61030484848461075c565b6001600160a01b0384165f9081526005602090815260408083203380855292529091205461033e918691610339908690610c2a565b610638565b5060019392505050565b335f908152600460205260409020548111156103a05760405162461bcd60e51b815260206004820152601260248201527153616c646f20696e737566696369656e746560701b60448201526064015b60405180910390fd5b6103aa3382610937565b60075460405163a9059cbb60e01b8152336004820152602481018390526001600160a01b039091169063a9059cbb906044016020604051808303815f875af11580156103f8573d5f803e3d5ffd5b505050506040513d601f19601f8201168201806040525081019061041c9190610c3d565b61045a5760405162461bcd60e51b815260206004820152600f60248201526e151c985b9cd9995c8819985a5b1959608a1b6044820152606401610397565b50565b6002545f906104709060ff16600a610d3c565b61047b906001610d47565b905090565b6001805461026390610bde565b335f908152600460205260409020548211156104fa5760405162461bcd60e51b815260206004820152602660248201527f53616c646f20696e737566696369656e746520646520746f6b656e732073696d604482015265756c61646f7360d01b6064820152608401610397565b6006546105129033906001600160a01b031684610638565b60075460065460405163095ea7b360e01b81526001600160a01b0391821660048201526024810184905291169063095ea7b3906044016020604051808303815f875af1158015610564573d5f803e3d5ffd5b505050506040513d601f19601f820116820180604052508101906105889190610c3d565b5060065460075460405162e8e33760e81b81523060048201526001600160a01b03918216602482015260448101859052606481018490525f6084820181905260a48201523360c48201524260e482015291169063e8e3370090610104016060604051808303815f875af1158015610601573d5f803e3d5ffd5b505050506040513d601f19601f820116820180604052508101906106259190610d5e565b5050505050565b5f6102ee33848461075c565b6001600160a01b03831661069a5760405162461bcd60e51b8152602060048201526024808201527f45524332303a20617070726f76652066726f6d20746865207a65726f206164646044820152637265737360e01b6064820152608401610397565b6001600160a01b0382166106fb5760405162461bcd60e51b815260206004820152602260248201527f45524332303a20617070726f766520746f20746865207a65726f206164647265604482015261737360f01b6064820152608401610397565b6001600160a01b038381165f8181526005602090815260408083209487168084529482529182902085905590518481527f8c5be1e5ebec7d5bd14f71427d1e84f3dd0314c0f7b2291e5b200ac8c7c3b92591015b60405180910390a3505050565b6001600160a01b0383166107c05760405162461bcd60e51b815260206004820152602560248201527f45524332303a207472616e736665722066726f6d20746865207a65726f206164604482015264647265737360d81b6064820152608401610397565b6001600160a01b0382166108225760405162461bcd60e51b815260206004820152602360248201527f45524332303a207472616e7366657220746f20746865207a65726f206164647260448201526265737360e81b6064820152608401610397565b6001600160a01b0383165f908152600460205260409020548111156108985760405162461bcd60e51b815260206004820152602660248201527f45524332303a207472616e7366657220616d6f756e7420657863656564732062604482015265616c616e636560d01b6064820152608401610397565b6001600160a01b0383165f90815260046020526040812080548392906108bf908490610c2a565b90915550506001600160a01b0382165f90815260046020526040812080548392906108eb908490610d89565b92505081905550816001600160a01b0316836001600160a01b03167fddf252ad1be2c89b69c2b068fc378daa952ba7f163c4a11628f55a4df523b3ef8360405161074f91815260200190565b6001600160a01b0382166109975760405162461bcd60e51b815260206004820152602160248201527f45524332303a206275726e2066726f6d20746865207a65726f206164647265736044820152607360f81b6064820152608401610397565b6001600160a01b0382165f90815260046020526040902054811115610a095760405162461bcd60e51b815260206004820152602260248201527f45524332303a206275726e20616d6f756e7420657863656564732062616c616e604482015261636560f01b6064820152608401610397565b8060035f828254610a1a9190610c2a565b90915550506001600160a01b0382165f9081526004602052604081208054839290610a46908490610c2a565b90915550506040518181525f906001600160a01b038416907fddf252ad1be2c89b69c2b068fc378daa952ba7f163c4a11628f55a4df523b3ef9060200160405180910390a35050565b5f6020808352835180828501525f5b81811015610aba57858101830151858201604001528201610a9e565b505f604082860101526040601f19601f8301168501019250505092915050565b80356001600160a01b0381168114610af0575f80fd5b919050565b5f8060408385031215610b06575f80fd5b610b0f83610ada565b946020939093013593505050565b5f805f60608486031215610b2f575f80fd5b610b3884610ada565b9250610b4660208501610ada565b9150604084013590509250925092565b5f60208284031215610b66575f80fd5b5035919050565b5f60208284031215610b7d575f80fd5b610b8682610ada565b9392505050565b5f8060408385031215610b9e575f80fd5b50508035926020909101359150565b5f8060408385031215610bbe575f80fd5b610bc783610ada565b9150610bd560208401610ada565b90509250929050565b600181811c90821680610bf257607f821691505b602082108103610c1057634e487b7160e01b5f52602260045260245ffd5b50919050565b634e487b7160e01b5f52601160045260245ffd5b818103818111156102f2576102f2610c16565b5f60208284031215610c4d575f80fd5b81518015158114610b86575f80fd5b600181815b80851115610c9657815f1904821115610c7c57610c7c610c16565b80851615610c8957918102915b93841c9390800290610c61565b509250929050565b5f82610cac575060016102f2565b81610cb857505f6102f2565b8160018114610cce5760028114610cd857610cf4565b60019150506102f2565b60ff841115610ce957610ce9610c16565b50506001821b6102f2565b5060208310610133831016604e8410600b8410161715610d17575081810a6102f2565b610d218383610c5c565b805f1904821115610d3457610d34610c16565b029392505050565b5f610b868383610c9e565b80820281158282048414176102f2576102f2610c16565b5f805f60608486031215610d70575f80fd5b8351925060208401519150604084015190509250925092565b808201808211156102f2576102f2610c1656fea2646970667358221220f6dff20dcdedbb6ea0a606037a17ab0bcb00f87cc35ee3f7fb31642cd2bda58464736f6c63430008140033",
  "immutableReferences": {},
  "source": "// SPDX-License-Identifier: MIT\r\npragma solidity ^0.8.20;\r\n\r\nimport \"./IERC20.sol\";  \r\nimport \"./IUniswapV2Router02.sol\";  \r\n\r\ncontract SimulatedUSDTToken is IERC20 {\r\n    string public name = \"Tether USD\";\r\n    string public symbol = \"USDT\";\r\n    uint8 public decimals = 6;\r\n    uint256 private _totalSupply;\r\n\r\n    mapping(address => uint256) private _balances;\r\n    mapping(address => mapping(address => uint256)) private _allowances;\r\n\r\n    IUniswapV2Router02 public uniswapRouter;\r\n    address public usdt;\r\n\r\n    constructor(address _usdtAddress, address _uniswapRouterAddress) {\r\n        usdt = _usdtAddress;\r\n        uniswapRouter = IUniswapV2Router02(_uniswapRouterAddress);\r\n        _mint(msg.sender, 10_000_000 * (10 ** uint256(decimals)));\r\n    }\r\n\r\n    // Funes ERC20 padro\r\n    function totalSupply() external view returns (uint256) {\r\n        return _totalSupply;\r\n    }\r\n\r\n    function balanceOf(address account) public view returns (uint256) {\r\n        return _balances[account];\r\n    }\r\n\r\n    function transfer(address recipient, uint256 amount) public override returns (bool) {\r\n        _transfer(msg.sender, recipient, amount);\r\n        return true;\r\n    }\r\n\r\n    function allowance(address owner, address spender) public view returns (uint256) {\r\n        return _allowances[owner][spender];\r\n    }\r\n\r\n    function approve(address spender, uint256 amount) public override returns (bool) {\r\n        _approve(msg.sender, spender, amount);\r\n        return true;\r\n    }\r\n\r\n    function transferFrom(address sender, address recipient, uint256 amount) public override returns (bool) {\r\n        _transfer(sender, recipient, amount);\r\n        _approve(sender, msg.sender, _allowances[sender][msg.sender] - amount);\r\n        return true;\r\n    }\r\n\r\n    // Funes internas\r\n    function _transfer(address sender, address recipient, uint256 amount) internal {\r\n        require(sender != address(0), \"ERC20: transfer from the zero address\");\r\n        require(recipient != address(0), \"ERC20: transfer to the zero address\");\r\n        require(_balances[sender] >= amount, \"ERC20: transfer amount exceeds balance\");\r\n\r\n        _balances[sender] -= amount;\r\n        _balances[recipient] += amount;\r\n\r\n        emit Transfer(sender, recipient, amount);\r\n    }\r\n\r\n    function _approve(address owner, address spender, uint256 amount) internal {\r\n        require(owner != address(0), \"ERC20: approve from the zero address\");\r\n        require(spender != address(0), \"ERC20: approve to the zero address\");\r\n\r\n        _allowances[owner][spender] = amount;\r\n        emit Approval(owner, spender, amount);\r\n    }\r\n\r\n    function _mint(address account, uint256 amount) internal {\r\n        require(account != address(0), \"ERC20: mint to the zero address\");\r\n\r\n        _totalSupply += amount;\r\n        _balances[account] += amount;\r\n\r\n        emit Transfer(address(0), account, amount);\r\n    }\r\n\r\n    function _burn(address account, uint256 amount) internal {\r\n        require(account != address(0), \"ERC20: burn from the zero address\");\r\n        require(_balances[account] >= amount, \"ERC20: burn amount exceeds balance\");\r\n\r\n        _totalSupply -= amount;\r\n        _balances[account] -= amount;\r\n\r\n        emit Transfer(account, address(0), amount);\r\n    }\r\n\r\n    // Funes para adicionar liquidez ao Uniswap\r\n    function addLiquidity(uint256 tokenAmount, uint256 usdtAmount) external {\r\n        require(balanceOf(msg.sender) >= tokenAmount, \"Saldo insuficiente de tokens simulados\");\r\n        _approve(msg.sender, address(uniswapRouter), tokenAmount);\r\n        IERC20(usdt).approve(address(uniswapRouter), usdtAmount);\r\n\r\n        uniswapRouter.addLiquidity(\r\n            address(this),\r\n            usdt,\r\n            tokenAmount,\r\n            usdtAmount,\r\n            0,  // Mnimo de seu token aceitvel\r\n            0,  // Mnimo de USDT aceitvel\r\n            msg.sender,\r\n            block.timestamp\r\n        );\r\n    }\r\n\r\n    // Funo de queima e troca de tokens\r\n    function exchangeSimulatedForUSDT(uint256 amount) public {\r\n        require(balanceOf(msg.sender) >= amount, \"Saldo insuficiente\");\r\n        _burn(msg.sender, amount);  // Queima os tokens simulados\r\n        require(IERC20(usdt).transfer(msg.sender, amount), \"Transfer failed\");\r\n    }\r\n\r\n    // Funo para obter o preo (1:1 com USDT)\r\n    function getSimulatedPrice() public view returns (uint256) {\r\n        return 1 * 10 ** uint256(decimals);\r\n    }\r\n\r\n    // Eventos do contrato\r\n    event Transfer(address indexed from, address indexed to, uint256 value);\r\n    event Approval(address indexed owner, address indexed spender, uint256 value);\r\n}\r\n",
  "sourcePath": "C:\\Users\\lipin\\OneDrive\\rea de Trabalho\\UsdtToken\\contracts\\SimulatedUSDTToken.sol",
  "compiler": {
    "name": "solc",
    "version": "0.8.20+commit.a1b79de6.Emscripten.clang"
  },
  "schemaVersion": "3.4.16",
  "updatedAt": "2025-02-20T17:46:37.601Z",
  "networkType": "ethereum",
  "devdoc": {
    "kind": "dev",
    "methods": {},
    "version": 1
  },
  "userdoc": {
    "kind": "user",
    "methods": {},
    "version": 1
  }
}